:100000000204232D2D546865726D6F6D65746572E1
:0B0010002D2D2D0054656D70203D006B
:10001B00C000788500D8FDD00022C000C00179282F
:10002B007868D8FED9FADAF6D001D00022D2941231
:10003B00001BC29422A2E79283A2E69282A2E592CF
:10004B0081A2E4928012003812001BA2E39283A2D9
:10005B00E29282A2E19281A2E0928012003822D237
:10006B0093020040C293020040C294C0027A28124D
:10007B000025D002743312006F743312006F743288
:10008B0012006F742812006F740C12006F7401123F
:10009B00006FC0027A02120025D00222E4936006A0
:1000AB0012006AA380F6224440448002006FC0E035
:1000BB00E8C4540F443012006AE8540F4430120065
:0400CB006AD0E022F5
:1000CF00C0E0C0D0C000C001C002E4F538F539F57A
:1000DF003AF53BF53C7A20E533A2E779047830E630
:1000EF0033F608D9FA79057838E636D4F608D9F90F
:1000FF00DAE5D002D001D000D0D0D0E022C0E0C0ED
:10010F00D0C000C001C002E4F538F539F53AF53B2F
:10011F00F53C7A20E533A2E779047830E633F60828
:10012F00D9FA79057838C0D0E6243320E70224D0F5
:10013F0020E30224FDD0D033F608D9EADAD6D00274
:10014F00D001D000D0D0D0E022C0E0C0D0C000C0DD
:10015F0001C0027A207905C3783CE613C0D030E79E
:10016F000224D030E30224FDF618D0D0D9EC790464
:10017F007833E613F618D9FADADBD002D001D000C3
:10018F00D0D0D0E022C0E0C0D0E5302534F530E546
:10019F00313535F531E5323536F532E5333537F56D
:1001AF0033D0D0D0E022C0E0C0D0C3E5309534F5D5
:1001BF0030E5319535F531E5329536F532E5339544
:1001CF0037F533D0D0D0E022C0E0C0D0C3E53095B2
:1001DF0034E5319535E5329536E53395379200D0D4
:1001EF00D0D0E022C0E0C0D0C3E5349530E53595DE
:1001FF0031E5369532E53795339200D0D0D0E022F5
:10020F00C0E0C0D0C200C3E53495307014E5359519
:10021F0031700EE53695327008E53795337002D29E
:10022F0000D0D0D0E02212020F2000030201F322EF
:10023F0012020F2000030201D722C0E0C0F0C0D08D
:10024F00C000C001C002C003E5308534F0A4F8A996
:10025F00F0E5318534F0A429F9E435F0FAE530857D
:10026F0035F0A429F9E5F03AFAE433FBE5328534A9
:10027F00F0A42AFAE5F03BFBE5318535F0A42AFA24
:10028F00E5F03BFBE5308536F0A42AFAE5F03BFBC1
:10029F00E5338534F0A42BFBE5328535F0A42BFB39
:1002AF00E5318536F0A42BFBE5308537F0A42BFB29
:1002BF008B338A3289318830D003D002D001D000FD
:1002CF00D0D0D0F0D0E022C0E0C0D0C000C001C07C
:1002DF0002C003C0047C20E4F8F9FAFBC3E5303315
:1002EF00F530E53133F531E53233F532E53333F5BA
:1002FF0033E833F8E933F9EA33FAEB33FBC3E89524
:10030F0034E99535EA9536EB95374013E89534F88F
:10031F00E99535F9EA9536FAEB9537FB433001DC71
:10032F00BBD004D003D002D001D000D0D0D0E02277
:10033F0075AC0075AD0075B30075B40075B100757F
:10034F00B200438E1043878075985253C4DF538990
:10035F000F438920758DF7D28EC28C438E08538937
:10036F00F043890143B30253B4FD53E8F043E80768
:10037F0075F60043F68043E10122C28CC28D758C65
:10038F00BF758A28D28C308DFD22120389DAFB22A9
:10039F003099FDC299F59922E53AC4540F443012B1
:1003AF00039FE53A540F443012039F742E12039F9C
:1003BF00E539C4540F443012039FE539540F4430CC
:1003CF0012039F742012039F200104744380027450
:1003DF004612039F740D12039F740A12039F22C0CB
:1003EF00E0740A141200B2D0E0C000A83A1200B9AB
:1003FF00D000C0E0742E12006AD0E0C000A83912FD
:10040F0000B9D000C000A8381200B9D000227A1469
:10041F0012039922C20175817F12033F120074C02B
:10042F00E07401141200B4D0E0C083C082C0E09029
:10043F0000031200A7D0E0D082D083C0E074011473
:10044F001200B2D0E0C083C082C0E090001412004E
:10045F00A7D0E0D082D083209508B20112041D30BE
:10046F0095FDC2EFD2EE30EFFDE5C3C4C0E0540FEF
:10047F00F9D0E054F045C2F88830893175320075F3
:10048F0033007534407535C4753600753700120268
:10049F00497534FF75350F7536007537001202D662
:1004AF007534A475356A7536007537001201B57548
:1004BF003464753500753600753700120249200116
:1004CF0002802D75340975350075360075370012A9
:1004DF0002497534057535007536007537001202FF
:1004EF00D67534007535E2753604753700120194F0
:1004FF001200CF1203EE1203A7C0E0740F14120004
:10050F00B2D0E074DF12006AC0E07410141200B2AF
:10051F00D0E020010474438002744612006A7AFA14
:0B052F001203997AFA12039902046685
:00000001FF
